{
  "abi": [
    {
      "inputs": [
        {
          "internalType": "address",
          "name": "_oldToken",
          "type": "address"
        },
        {
          "internalType": "address",
          "name": "_newToken",
          "type": "address"
        }
      ],
      "stateMutability": "nonpayable",
      "type": "constructor"
    },
    {
      "inputs": [
        {
          "internalType": "uint256",
          "name": "missing",
          "type": "uint256"
        }
      ],
      "name": "NotEnoughNewTokens",
      "type": "error"
    },
    {
      "anonymous": false,
      "inputs": [
        {
          "indexed": true,
          "internalType": "address",
          "name": "previousOwner",
          "type": "address"
        },
        {
          "indexed": true,
          "internalType": "address",
          "name": "newOwner",
          "type": "address"
        }
      ],
      "name": "OwnershipTransferred",
      "type": "event"
    },
    {
      "anonymous": false,
      "inputs": [
        {
          "indexed": true,
          "internalType": "address",
          "name": "user",
          "type": "address"
        },
        {
          "indexed": false,
          "internalType": "uint256",
          "name": "amount",
          "type": "uint256"
        }
      ],
      "name": "Swapped",
      "type": "event"
    },
    {
      "inputs": [],
      "name": "newToken",
      "outputs": [
        {
          "internalType": "contract IERC20",
          "name": "",
          "type": "address"
        }
      ],
      "stateMutability": "view",
      "type": "function"
    },
    {
      "inputs": [],
      "name": "oldToken",
      "outputs": [
        {
          "internalType": "contract IERC20",
          "name": "",
          "type": "address"
        }
      ],
      "stateMutability": "view",
      "type": "function"
    },
    {
      "inputs": [],
      "name": "owner",
      "outputs": [
        {
          "internalType": "address",
          "name": "",
          "type": "address"
        }
      ],
      "stateMutability": "view",
      "type": "function"
    },
    {
      "inputs": [],
      "name": "renounceOwnership",
      "outputs": [],
      "stateMutability": "nonpayable",
      "type": "function"
    },
    {
      "inputs": [
        {
          "internalType": "address",
          "name": "token",
          "type": "address"
        },
        {
          "internalType": "address",
          "name": "to",
          "type": "address"
        },
        {
          "internalType": "uint256",
          "name": "amount",
          "type": "uint256"
        }
      ],
      "name": "sendTokens",
      "outputs": [],
      "stateMutability": "nonpayable",
      "type": "function"
    },
    {
      "inputs": [
        {
          "internalType": "uint256",
          "name": "amount",
          "type": "uint256"
        }
      ],
      "name": "swap",
      "outputs": [],
      "stateMutability": "nonpayable",
      "type": "function"
    },
    {
      "inputs": [
        {
          "internalType": "address",
          "name": "newOwner",
          "type": "address"
        }
      ],
      "name": "transferOwnership",
      "outputs": [],
      "stateMutability": "nonpayable",
      "type": "function"
    }
  ],
  "bytecode": {
    "object": "0x608060405234801561001057600080fd5b5060405161093938038061093983398101604081905261002f916100d8565b6100383361006c565b600180546001600160a01b039283166001600160a01b0319918216179091556002805493909216921691909117905561010b565b600080546001600160a01b038381166001600160a01b0319831681178455604051919092169283917f8be0079c531659141344cd1fd0a4f28419497f9722a3daafe3b4186f6b6457e09190a35050565b80516001600160a01b03811681146100d357600080fd5b919050565b600080604083850312156100eb57600080fd5b6100f4836100bc565b9150610102602084016100bc565b90509250929050565b61081f8061011a6000396000f3fe608060405234801561001057600080fd5b506004361061007d5760003560e01c8063b31c710a1161005b578063b31c710a146100c8578063c42bd05a146100db578063e6d66ac8146100ee578063f2fde38b1461010157600080fd5b8063715018a6146100825780638da5cb5b1461008c57806394b918de146100b5575b600080fd5b61008a610114565b005b6000546001600160a01b03165b6040516001600160a01b03909116815260200160405180910390f35b61008a6100c3366004610681565b610128565b600254610099906001600160a01b031681565b600154610099906001600160a01b031681565b61008a6100fc3660046106b6565b610236565b61008a61010f3660046106f2565b610259565b61011c6102d2565b610126600061032c565b565b600254610140906001600160a01b031633308461037c565b6001546040516370a0823160e01b81523060048201526000916001600160a01b0316906370a0823190602401602060405180830381865afa158015610189573d6000803e3d6000fd5b505050506040513d601f19601f820116820180604052508101906101ad9190610714565b9050818110156101e6576101c1818361072d565b60405163b3febd4b60e01b81526004016101dd91815260200190565b60405180910390fd5b6001546101fd906001600160a01b031633846103e7565b60405182815233907fcdee897399ab5e465acb1bd3ed5e32c695f196321764546c59720fa6c9ce4c699060200160405180910390a25050565b61023e6102d2565b826102536001600160a01b03821684846103e7565b50505050565b6102616102d2565b6001600160a01b0381166102c65760405162461bcd60e51b815260206004820152602660248201527f4f776e61626c653a206e6577206f776e657220697320746865207a65726f206160448201526564647265737360d01b60648201526084016101dd565b6102cf8161032c565b50565b6000546001600160a01b031633146101265760405162461bcd60e51b815260206004820181905260248201527f4f776e61626c653a2063616c6c6572206973206e6f7420746865206f776e657260448201526064016101dd565b600080546001600160a01b038381166001600160a01b0319831681178455604051919092169283917f8be0079c531659141344cd1fd0a4f28419497f9722a3daafe3b4186f6b6457e09190a35050565b6040516001600160a01b03808516602483015283166044820152606481018290526102539085906323b872dd60e01b906084015b60408051601f198184030181529190526020810180516001600160e01b03166001600160e01b03199093169290921790915261041c565b6040516001600160a01b03831660248201526044810182905261041790849063a9059cbb60e01b906064016103b0565b505050565b6000610471826040518060400160405280602081526020017f5361666545524332303a206c6f772d6c6576656c2063616c6c206661696c6564815250856001600160a01b03166104f19092919063ffffffff16565b90508051600014806104925750808060200190518101906104929190610754565b6104175760405162461bcd60e51b815260206004820152602a60248201527f5361666545524332303a204552433230206f7065726174696f6e20646964206e6044820152691bdd081cdd58d8d9595960b21b60648201526084016101dd565b60606105008484600085610508565b949350505050565b6060824710156105695760405162461bcd60e51b815260206004820152602660248201527f416464726573733a20696e73756666696369656e742062616c616e636520666f6044820152651c8818d85b1b60d21b60648201526084016101dd565b600080866001600160a01b03168587604051610585919061079a565b60006040518083038185875af1925050503d80600081146105c2576040519150601f19603f3d011682016040523d82523d6000602084013e6105c7565b606091505b50915091506105d8878383876105e3565b979650505050505050565b6060831561065257825160000361064b576001600160a01b0385163b61064b5760405162461bcd60e51b815260206004820152601d60248201527f416464726573733a2063616c6c20746f206e6f6e2d636f6e747261637400000060448201526064016101dd565b5081610500565b61050083838151156106675781518083602001fd5b8060405162461bcd60e51b81526004016101dd91906107b6565b60006020828403121561069357600080fd5b5035919050565b80356001600160a01b03811681146106b157600080fd5b919050565b6000806000606084860312156106cb57600080fd5b6106d48461069a565b92506106e26020850161069a565b9150604084013590509250925092565b60006020828403121561070457600080fd5b61070d8261069a565b9392505050565b60006020828403121561072657600080fd5b5051919050565b8181038181111561074e57634e487b7160e01b600052601160045260246000fd5b92915050565b60006020828403121561076657600080fd5b8151801515811461070d57600080fd5b60005b83811015610791578181015183820152602001610779565b50506000910152565b600082516107ac818460208701610776565b9190910192915050565b60208152600082518060208401526107d5816040850160208701610776565b601f01601f1916919091016040019291505056fea2646970667358221220b4177d664687a0a90726952f95308c099dea6cd86a5784ee79a018dbda96effe64736f6c63430008130033",
    "linkReferences": {}
  },
  "methodIdentifiers": {
    "newToken()": "c42bd05a",
    "oldToken()": "b31c710a",
    "owner()": "8da5cb5b",
    "renounceOwnership()": "715018a6",
    "sendTokens(address,address,uint256)": "e6d66ac8",
    "swap(uint256)": "94b918de",
    "transferOwnership(address)": "f2fde38b"
  },
  "id": 0
}